{
  "_format": "hh-sol-artifact-1",
  "contractName": "HealthRecordManagement",
  "sourceName": "contracts/HealthRecordManagement.sol",
  "abi": [
    {
      "inputs": [
        {
          "internalType": "string",
          "name": "_patientName",
          "type": "string"
        },
        {
          "internalType": "string",
          "name": "_gender",
          "type": "string"
        },
        {
          "internalType": "string",
          "name": "_diagnosedDisease",
          "type": "string"
        },
        {
          "internalType": "string",
          "name": "_treatment",
          "type": "string"
        },
        {
          "internalType": "string",
          "name": "_visitDate",
          "type": "string"
        },
        {
          "internalType": "string",
          "name": "_nextVisitDate",
          "type": "string"
        }
      ],
      "name": "addHealthRecord",
      "outputs": [],
      "stateMutability": "nonpayable",
      "type": "function"
    },
    {
      "inputs": [],
      "name": "getHealthRecords",
      "outputs": [
        {
          "components": [
            {
              "internalType": "string",
              "name": "patientName",
              "type": "string"
            },
            {
              "internalType": "string",
              "name": "gender",
              "type": "string"
            },
            {
              "internalType": "string",
              "name": "diagnosedDisease",
              "type": "string"
            },
            {
              "internalType": "string",
              "name": "treatment",
              "type": "string"
            },
            {
              "internalType": "string",
              "name": "visitDate",
              "type": "string"
            },
            {
              "internalType": "string",
              "name": "nextVisitDate",
              "type": "string"
            }
          ],
          "internalType": "struct HealthRecordManagement.HealthRecord[]",
          "name": "",
          "type": "tuple[]"
        }
      ],
      "stateMutability": "view",
      "type": "function"
    }
  ],
  "bytecode": "0x608060405234801561001057600080fd5b50610b51806100206000396000f3fe608060405234801561001057600080fd5b50600436106100365760003560e01c8063115dab731461003b578063f4080e6014610057575b600080fd5b610055600480360381019061005091906106d9565b610075565b005b61005f6101c7565b60405161006c9190610960565b60405180910390f35b60006040518060c001604052808881526020018781526020018681526020018581526020018481526020018381525090506000803373ffffffffffffffffffffffffffffffffffffffff1673ffffffffffffffffffffffffffffffffffffffff168152602001908152602001600020819080600181540180825580915050600190039060005260206000209060060201600090919091909150600082015181600001908051906020019061012a9291906105ce565b5060208201518160010190805190602001906101479291906105ce565b5060408201518160020190805190602001906101649291906105ce565b5060608201518160030190805190602001906101819291906105ce565b50608082015181600401908051906020019061019e9291906105ce565b5060a08201518160050190805190602001906101bb9291906105ce565b50505050505050505050565b60606000803373ffffffffffffffffffffffffffffffffffffffff1673ffffffffffffffffffffffffffffffffffffffff168152602001908152602001600020805480602002602001604051908101604052809291908181526020016000905b828210156105c557838290600052602060002090600602016040518060c001604052908160008201805461025a90610a7a565b80601f016020809104026020016040519081016040528092919081815260200182805461028690610a7a565b80156102d35780601f106102a8576101008083540402835291602001916102d3565b820191906000526020600020905b8154815290600101906020018083116102b657829003601f168201915b505050505081526020016001820180546102ec90610a7a565b80601f016020809104026020016040519081016040528092919081815260200182805461031890610a7a565b80156103655780601f1061033a57610100808354040283529160200191610365565b820191906000526020600020905b81548152906001019060200180831161034857829003601f168201915b5050505050815260200160028201805461037e90610a7a565b80601f01602080910402602001604051908101604052809291908181526020018280546103aa90610a7a565b80156103f75780601f106103cc576101008083540402835291602001916103f7565b820191906000526020600020905b8154815290600101906020018083116103da57829003601f168201915b5050505050815260200160038201805461041090610a7a565b80601f016020809104026020016040519081016040528092919081815260200182805461043c90610a7a565b80156104895780601f1061045e57610100808354040283529160200191610489565b820191906000526020600020905b81548152906001019060200180831161046c57829003601f168201915b505050505081526020016004820180546104a290610a7a565b80601f01602080910402602001604051908101604052809291908181526020018280546104ce90610a7a565b801561051b5780601f106104f05761010080835404028352916020019161051b565b820191906000526020600020905b8154815290600101906020018083116104fe57829003601f168201915b5050505050815260200160058201805461053490610a7a565b80601f016020809104026020016040519081016040528092919081815260200182805461056090610a7a565b80156105ad5780601f10610582576101008083540402835291602001916105ad565b820191906000526020600020905b81548152906001019060200180831161059057829003601f168201915b50505050508152505081526020019060010190610227565b50505050905090565b8280546105da90610a7a565b90600052602060002090601f0160209004810192826105fc5760008555610643565b82601f1061061557805160ff1916838001178555610643565b82800160010185558215610643579182015b82811115610642578251825591602001919060010190610627565b5b5090506106509190610654565b5090565b5b8082111561066d576000816000905550600101610655565b5090565b600061068461067f846109b3565b610982565b90508281526020810184848401111561069c57600080fd5b6106a7848285610a38565b509392505050565b600082601f8301126106c057600080fd5b81356106d0848260208601610671565b91505092915050565b60008060008060008060c087890312156106f257600080fd5b600087013567ffffffffffffffff81111561070c57600080fd5b61071889828a016106af565b965050602087013567ffffffffffffffff81111561073557600080fd5b61074189828a016106af565b955050604087013567ffffffffffffffff81111561075e57600080fd5b61076a89828a016106af565b945050606087013567ffffffffffffffff81111561078757600080fd5b61079389828a016106af565b935050608087013567ffffffffffffffff8111156107b057600080fd5b6107bc89828a016106af565b92505060a087013567ffffffffffffffff8111156107d957600080fd5b6107e589828a016106af565b9150509295509295509295565b60006107fe83836108b4565b905092915050565b6000610811826109f3565b61081b8185610a16565b93508360208202850161082d856109e3565b8060005b85811015610869578484038952815161084a85826107f2565b945061085583610a09565b925060208a01995050600181019050610831565b50829750879550505050505092915050565b6000610886826109fe565b6108908185610a27565b93506108a0818560208601610a47565b6108a981610b0a565b840191505092915050565b600060c08301600083015184820360008601526108d1828261087b565b915050602083015184820360208601526108eb828261087b565b91505060408301518482036040860152610905828261087b565b9150506060830151848203606086015261091f828261087b565b91505060808301518482036080860152610939828261087b565b91505060a083015184820360a0860152610953828261087b565b9150508091505092915050565b6000602082019050818103600083015261097a8184610806565b905092915050565b6000604051905081810181811067ffffffffffffffff821117156109a9576109a8610adb565b5b8060405250919050565b600067ffffffffffffffff8211156109ce576109cd610adb565b5b601f19601f8301169050602081019050919050565b6000819050602082019050919050565b600081519050919050565b600081519050919050565b6000602082019050919050565b600082825260208201905092915050565b600082825260208201905092915050565b82818337600083830152505050565b60005b83811015610a65578082015181840152602081019050610a4a565b83811115610a74576000848401525b50505050565b60006002820490506001821680610a9257607f821691505b60208210811415610aa657610aa5610aac565b5b50919050565b7f4e487b7100000000000000000000000000000000000000000000000000000000600052602260045260246000fd5b7f4e487b7100000000000000000000000000000000000000000000000000000000600052604160045260246000fd5b6000601f19601f830116905091905056fea264697066735822122002ab2286c7c2accd20d770d04f7d551e4a2c76922349540df4ade62f6dfd0bd464736f6c63430008000033",
  "linkReferences": {},
  "deployedLinkReferences": {}
}